:100000000C946B010C948C010C948C010C948C015D
:100010000C948C010C948C010C948C010C948C012C
:100020000C948C010C948C010C948C010C948C011C
:100030000C948C010C948C010C948C010C948C010C
:100040000C948C010C948C010C948C010C948C01FC
:100050000C948C010C948C010C948C010C948C01EC
:100060000C948C010C948C010C948C010C948C01DC
:100070000C948C010C948C010C948C010C948C01CC
:100080000C948C010C948C010C948C010C948C01BC
:100090000C948C010C948C010C948C010C948C01AC
:1000A0000C948C010C948C010C948C010C948C019C
:1000B0000C948C010C948C010C948C010C948C018C
:1000C0000C948C010C948C010C948C010C948C017C
:1000D0000C948C010C948C010C948C010C948C016C
:1000E0000C948C010C948C010C948C010C948C015C
:1000F0000C948C010C948C010C948C010C948C014C
:100100000C948C010C948C010C948C010C948C013B
:100110000C948C010C948C010C948C010C948C012B
:100120000C948C010C948C010C948C010C948C011B
:100130000C948C010C948C010C948C010C948C010B
:100140000C948C010C948C010C948C010C948C01FB
:100150000C948C010C948C010C948C010C948C01EB
:100160000C948C010C948C010C948C010C948C01DB
:100170000C948C010C948C010C948C010C948C01CB
:100180000C948C010C948C010C948C010C948C01BB
:100190000C948C010C948C010C948C010C948C01AB
:1001A0000C948C010C948C010C948C010C948C019B
:1001B0000C948C010C948C010C948C010C948C018B
:1001C0000C948C010C948C010C94BC020102040868
:1001D000102040801B36637C777BF26B6FC530014B
:1001E000672BFED7AB76CA82C97DFA5947F0ADD4EA
:1001F000A2AF9CA472C0B7FD9326363FF7CC34A5BE
:10020000E5F171D8311504C723C31896059A071272
:1002100080E2EB27B27509832C1A1B6E5AA0523B61
:10022000D6B329E32F8453D100ED20FCB15B6ACB18
:10023000BE394A4C58CFD0EFAAFB434D338545F920
:10024000027F503C9FA851A3408F929D38F5BCB6C9
:10025000DA2110FFF3D2CD0C13EC5F974417C4A73B
:100260007E3D645D197360814FDC222A908846EEE2
:10027000B814DE5E0BDBE0323A0A4906245CC2D3D6
:10028000AC629195E479E7C8376D8DD54EA96C566F
:10029000F4EA657AAE08BA78252E1CA6B4C6E8DD65
:1002A000741F4BBD8B8A703EB5664803F60E6135F0
:1002B00057B986C11D9EE1F8981169D98E949B1E8D
:1002C00087E9CE5528DF8CA1890DBFE642684199A8
:1002D0002D0FB054BB1611241FBECFEFCDBFDFE3EF
:1002E000DEBF00E00CBF10E2A0E0B0E2E2E5F4E126
:1002F00000E00BBF02C007900D92A434B107D9F7FC
:1003000021E2A4E4B0E201C01D92A832B207E1F7F5
:100310000E9437070C94270A0C940000CF93DF93B8
:10032000EC018991882319F00E943104FACFDF9102
:10033000CF910895CF93DF93CDB7DEB7C854D109DD
:10034000CDBFDEBF20E030E0BB24B39480E1E82ED7
:1003500080E2F82E8E010F5F1F4F25961CAE1DAE5A
:100360001EAE1FAE2597B0920506B09206062996DE
:100370001EAE1FAE299729968EAD9FAD2997883C5A
:10038000910578F527961EAE1FAE279727968EAD5E
:100390009FAD2797883C9105C8F425968CAD9DADFF
:1003A000AEADBFAD25970196A11DB11D25968CAFB1
:1003B0009DAFAEAFBFAF259727968EAD9FAD279768
:1003C000019627968EAF9FAF2797E0CF29964EAD27
:1003D0005FAD29974F5F5F4F29964EAF5FAF29976B
:1003E000CACF69018FEFC81AD80A2796EEADFFADC4
:1003F000279729968EAD9FAD299725964CAD5DAD7B
:100400006EAD7FAD25973F932F93FF93EF939F930F
:100410008F937F936F935F934F93FF92EF921F930E
:100420000F930E945C07C8010E948E01CDBFDEBF02
:10043000960193CFCF93DF931F92CDB7DEB780E2C3
:100440008093060680E480930506198281E40E9469
:10045000310481E08093050680930606898182300D
:10046000E9F710E4109306061093060610930606AB
:1004700010930606109306061093060610930606C0
:1004800010930606109306068EE190E20E948E01FC
:1004900010930606109306061093060610930606A0
:1004A0001093060610930606109306061093060690
:1004B000FFCF82E40E9431040E942A0491E09093CD
:1004C000050690930606813711F081E301C082E3AF
:1004D0000E9431048AE00E9431048AE00E943104C3
:1004E0008AE00E9431048AE00C9431041F93CF9378
:1004F000DF93CDB7DEB76697CDBFDEBF83E290E274
:100500000E948E0110E081E4103168F48A3059F0C5
:100510000E942A04E1E0F0E0EC0FFD1FE10FF11D65
:1005200080831F5FF1CF86E0EEE3F0E2DE015196BB
:1005300001900D928A95E1F781E080930506809302
:100540000606DE015196FE01319695E09E0F31912F
:100550002D91321380E09E13FACF811103C08DE2FA
:1005600090E202C085E390E26696CDBFDEBFDF91E8
:10057000CF911F910C948E0180E00895CF93DF936B
:10058000DB011196FA019F01241B350B281739074F
:10059000D4F5ED01219728813C9160ED630F6A301D
:1005A00010F460830FC06FEB630F663010F43753A5
:1005B00008C06FE9630F663018F081E090E025C055
:1005C0003755308330ED320F3A3018F42295207FC2
:1005D00014C03FEB320F363020F430E0275331099E
:1005E00007C03FE9320F363040F730E02755310978
:1005F00064E0220F331F6A95E1F73081232B2083BB
:1006000031961296C0CF80E090E0DF91CF910895AF
:1006100020914420309145202B303105CCF46134B9
:100620007105B0F495E0929FF001939FF00D1124B5
:10063000EA5BFF4D808361837283438354832F5F22
:100640003F4F209344203093452080E090E0089570
:1006500081E090E008954CEB52E060E070E086E7C6
:100660000C940803CF92DF92EF92FF920F931F93A7
:10067000CF93DF938B01EA010E9431047E01C70111
:100680008C1B9D0B80179107B4F46701D701ED9186
:100690007D01E295EF70F0E0E050F04E80810E9425
:1006A0003104D601EC91EF70F0E0E050F04E808123
:1006B0000E943104E4CF8AE0DF91CF911F910F9126
:1006C000FF90EF90DF90CF900C943104AF92BF92E7
:1006D000CF92DF92EF92FF920F931F93CF93DF930E
:1006E000CDB7DEB7C15CD109CDBFDEBF0E942A0401
:1006F000409144205091452026E430E200E010E093
:100700000417150754F42B5F3F4FF901359790817B
:10071000981739F00F5F1F4FF3CF0417150709F42F
:1007200054C09E012F5F3F4F7901590125E0209F62
:10073000C001219F900D1124DC01A95BBF4D6D010B
:10074000D6018D919C91880F991F95012E193F0913
:100750002817390750F40E942A048A30B1F18D30ED
:10076000A1F1F50181935F01EBCF0E942A048A3049
:1007700011F08D3051F525E0209FC001219F900D93
:1007800011248C010A5B1F4DAE014F575F4FB7011B
:10079000F801818192810E94BE02892BB1F4D801B7
:1007A0001396ED91FC911497CE018F579F4F199599
:1007B000CF53DF4F8883C15CD040AE014F535F4FB2
:1007C00061E070E08AE70E943203CF53DF4FCDBF74
:1007D000DEBFDF91CF911F910F91FF90EF90DF90DF
:1007E000CF90BF90AF900895E0E4F6E088E0818379
:1007F00084E08283E0EAF8E083E085838BE086830F
:1008000017828481806184838481886084830895D1
:10081000CF93DF931F921F92CDB7DEB769837A83A0
:1008200020E030E049815A812417350769F0409172
:10083000A10847FF06C02091A008FC01208381E0A9
:1008400004C02F5F3F4FEECF80E00F900F90DF91FD
:10085000CF9108958091A10887FFFCCF8091A008D7
:1008600008959091A10895FFFCCF8093A00808956A
:10087000FC01608371834283148613861686158675
:100880000895FC0162830895FC01958526859F5F8C
:10089000937081E0921301C080E008950F931F933D
:1008A000CF93DF931F92CDB7DEB78C0169830E948F
:1008B000440469818823A9F0D8011D969C911D9755
:1008C000F801E90FF11D67839F5F9370F801958729
:1008D0000190F081E02D93819C7F12962C91922BB8
:1008E00093830F90DF91CF911F910F910895FC0199
:1008F0002385948581E0291301C080E00895FC01DF
:100900008485DF01A80FB11D13968C9194859F5F9C
:10091000937094870895FC0183858F5F837024858D
:10092000A081B1819C91821749F02385DF01A20F3C
:10093000B11D13969C93838781E0089580E008950C
:10094000CF93DF93FC0186859585A081B1819813B3
:1009500007C013968C9113978C7F13968C930AC0C3
:100960008685EF01C80FD11D8F818C9386858F5F9F
:1009700083708687DF91CF910895FC01848170FF99
:1009800002C0816001C08E7F848360830895FC0172
:10099000848180FF04C0808190E09160089580810F
:1009A00090E00895109252001092550080915000EE
:1009B0008860809350008091510083FFFCCF88EDC8
:1009C00084BF83E08093400088E08093500080E6FD
:1009D00080930106809305060895089568E770E204
:1009E0000C94180768E770E20C942707CF93DF9305
:1009F00000D01F92CDB7DEB7DC018C9189831496AD
:100A00008C9114978A8318968C9118978B831C96D7
:100A10008C911C978C83862F8370E1E0F0E0EC0FC3
:100A2000FD1FE80FF11D80818C9370E0FB01319672
:100A3000E370FF2781E090E08C0F9D1FE80FF91F06
:100A4000808114968C931497FB013296E370FF27F4
:100A500081E090E08C0F9D1FE80FF91F80811896B0
:100A60008C931897FB013396E370FF2781E090E0A9
:100A70008C0F9D1FE80FF91F80811C968C93249684
:100A8000CDBFDEBFDF91CF9108952F923F924F925D
:100A90005F926F927F928F929F92AF92BF92CF920E
:100AA000DF92EF92FF920F931F93CF93DF93CDB717
:100AB000DEB76E97CDBFDEBF2C013B01542FDB01AB
:100AC0008D8B9E8B40968F8B988FF2018D919081AC
:100AD000892781938F89988DE817F907B9F79301D2
:100AE000205F3F4F22242394DE011196A98BBA8BFD
:100AF000A05FA98FF2013396EA8FFB8FCE0141965A
:100B00008B8B9C8B523008F4A3C08E010F5F1F4F5C
:100B1000D801C201FC014191CF01E42FF0E0EA527B
:100B2000FE4FE491ED93F98DFA13F4CF61E0CE011D
:100B300002962C8F3D8F5E8F0E94F60462E0CE01FC
:100B400003960E94F60463E0CE0104960E94F60428
:100B5000CE0102964C01DE0113965D01FE01349632
:100B60006F01EA8CFB8C5E8D3D8D2C8DD4016C91D8
:100B7000F80180816827D6013C90F50180813826F4
:100B800036264BE182E02C8F3D8F5E8F0E942A0734
:100B9000F7013397D8019C91892783258083F5013C
:100BA0006081D4018C9168274BE182E00E942A0782
:100BB000F7013297D4019C91892783258083F60120
:100BC0006081D5018C9168274BE182E00E942A0761
:100BD000F7013197D5019C91892783258083F801FE
:100BE0006081D6018C9168274BE182E00E942A0740
:100BF000F601908189273826D7013C920C5F1F4F60
:100C0000B4E08B0E911CE4E0AE0EB11CF4E0CF0E0C
:100C1000D11C44E0E40EF11C2C8D3D8D5E8D8B8942
:100C20009C890817190709F0A1CFF20180E090E034
:100C3000D901A80FB91F60814C91462741930196B5
:100C400080319105A9F723945150205F3F4F5ACF2F
:100C5000D201EC91F0E0EA52FE4FE491ED93EF897E
:100C6000F88DAE17BF07A9F761E0C20101960E9497
:100C7000F60462E0C20102960E94F60463E0C2013B
:100C800003960E94F604F0E12F9E1001112480E0EB
:100C900090E0FC01E20DF31DE60DF71DAD89BE8964
:100CA0003C91208123272D93AD8BBE8B0196803103
:100CB000910579F76E96CDBFDEBFDF91CF911F9181
:100CC0000F91FF90EF90DF90CF90BF90AF909F90EB
:100CD0008F907F906F905F904F903F902F900895EE
:100CE0008F929F92AF92BF92CF92DF92EF92FF923C
:100CF0000F931F93CF93DF93EA018B01E5E01695E5
:100D00000795EA95E1F7C02E7801FF249701295F46
:100D10003F4FD22EDD0CDD0CAB01F3E0569547952D
:100D2000FA95E1F7BC01CE010E945307602F802F96
:100D300090E08D1508F06FC0482F50E0DA01A15007
:100D4000B04CAA0FBB1FAA0FBB1FAC0FBD1F0D914C
:100D50001D912D913C911397861709F178E0C712E8
:100D600041C0782F7770743009F03CC0E02FF0E07C
:100D7000EA52FE4FE4910E2FE12FF0E0EA52FE4FCF
:100D8000E4911E2FE22FF0E0EA52FE4FE4912E2F65
:100D9000E32FF0E0EA52FE4FE4913E2F23C0682F8C
:100DA0006C0D702FA32EE12FF0E0EA52FE4FB490AD
:100DB000E22FF0E0EA52FE4FE4911E2FEA2DF0E020
:100DC000EA52FE4FE4912E2FE72FF0E0EA52FE4F59
:100DD000E4913E2FE92FF0E0E453FE4FE4910E2F13
:100DE0000B259F5FFA01EE19FF09EE0FFF1FEE0FB3
:100DF000FF1FEC0FFD1F80809180A280B38008252B
:100E000019252A253B2514960D931D932D933C936C
:100E100017978F5F8ECFDF91CF911F910F91FF902A
:100E2000EF90DF90CF90BF90AF909F908F900895FC
:100E3000AB0160E870E00C947006AB0160EC70E010
:100E40000C947006AB0160E071E00C9470064AE00F
:100E50000C944505782F8827769531F008F486277D
:100E6000660F08F46427F8CF08F4862708950E94D7
:100E7000D2040E94F40381E08093010688E60E9478
:100E8000310485E60E9431048CE60E9431048CE630
:100E90000E9431048FE60E9431048AE00E943104EE
:100EA0000E947602FDCFFB01DC0102C001900D9291
:100EB00041505040D8F708950F931F93CF93DF937D
:100EC000CDB7DEB72E97CDBFDEBF0E891F8986E076
:100ED0008C8309831A838FEF9FE78D839E83AE01F6
:100EE000465E5F4F688D798DCE0101960E94860720
:100EF0002F813885F801E20FF31F10822E96CDBFA7
:100F0000DEBFDF91CF911F910F9108952F923F92F5
:100F10004F925F926F927F928F929F92AF92BF9209
:100F2000CF92DF92EF92FF920F931F93CF93DF93B5
:100F3000CDB7DEB72C97CDBFDEBF7C016B018A0138
:100F4000FC0116821782838181FFBDC1CE0101960B
:100F50004C01F7019381F60193FD859193FF8191F7
:100F60006F01882309F4ABC1853239F493FD859173
:100F700093FF81916F01853229F4B70190E00E94BF
:100F80009109E7CF512C312C20E02032A0F48B3294
:100F900069F030F4803259F0833269F420612CC05A
:100FA0008D3239F0803339F4216026C0226024600C
:100FB00023C0286021C027FD27C030ED380F3A300C
:100FC00078F426FF06C0FAE05F9E300D1124532E00
:100FD00013C08AE0389E300D1124332E20620CC0DD
:100FE0008E3221F426FD6BC1206406C08C3611F4CC
:100FF000206802C0883641F4F60193FD859193FF85
:1010000081916F018111C1CF982F9F7D95549330AD
:1010100028F40C5F1F4FFFE3F9830DC0833631F0D6
:10102000833771F0833509F05BC022C0F8018081FD
:1010300089830E5F1F4F44244394512C540115C0E3
:101040003801F2E06F0E711CF801A080B18026FF1C
:1010500003C0652D70E002C06FEF7FEFC5012C87E4
:101060000E9486092C0183012C852F77222E17C020
:101070003801F2E06F0E711CF801A080B18026FFEC
:1010800003C0652D70E002C06FEF7FEFC5012C87B4
:101090000E947B092C012C852068222E830123FCD1
:1010A0001BC0832D90E048165906B0F4B70180E2CA
:1010B00090E00E9491093A94F4CFF50127FC8591C4
:1010C00027FE81915F01B70190E00E9491093110E4
:1010D0003A94F1E04F1A51084114510471F7E5C0F8
:1010E000843611F0893639F5F80127FF07C0608191
:1010F0007181828193810C5F1F4F08C06081718173
:10110000072E000C880B990B0E5F1F4F2F76722E47
:1011100097FF09C090958095709561957F4F8F4F8F
:101120009F4F2068722E2AE030E0A4010E94C90976
:10113000A82EA81844C0853729F42F7EB22E2AE0A5
:1011400030E025C0F22FF97FBF2E8F36C1F018F4A2
:10115000883579F0B4C0803719F0883721F0AFC0F6
:101160002F2F2061B22EB4FE0DC08B2D8460B82EBF
:1011700009C024FF0AC09F2F9660B92E06C028E040
:1011800030E005C020E130E002C020E132E0F801AB
:10119000B7FE07C060817181828193810C5F1F4F10
:1011A00006C06081718180E090E00E5F1F4FA40156
:1011B0000E94C909A82EA818FB2DFF777F2E76FE66
:1011C0000BC0372D3E7FA51450F474FE0AC072FC8C
:1011D00008C0372D3E7E05C0BA2C372D03C0BA2C6F
:1011E00001C0B52C34FF0DC0FE01EA0DF11D808158
:1011F000803311F4397E09C032FF06C0B394B39432
:1012000004C0832F867809F0B39433FD13C030FFF8
:1012100006C05A2CB31418F4530C5B18B32CB31437
:1012200068F4B70180E290E03C870E949109B39492
:101230003C85F5CFB31410F43B1801C0312C34FFBA
:1012400012C0B70180E390E03C870E9491093C8581
:1012500032FF17C031FD03C088E790E002C088E587
:1012600090E0B7010CC0832F867859F031FF02C09F
:101270008BE201C080E237FD8DE2B70190E00E9471
:101280009109A51438F4B70180E390E00E94910918
:101290005A94F7CFAA94F401EA0DF11D8081B701A9
:1012A00090E00E949109A110F5CF332009F451CEAE
:1012B000B70180E290E00E9491093A94F6CFF701DD
:1012C0008681978102C08FEF9FEF2C96CDBFDEBF46
:1012D000DF91CF911F910F91FF90EF90DF90CF9012
:1012E000BF90AF909F908F907F906F905F904F9046
:1012F0003F902F900895FC010590615070400110BF
:10130000D8F7809590958E0F9F1F0895FC0161502E
:10131000704001900110D8F7809590958E0F9F1F17
:1013200008950F931F93CF93DF93FB01238121FD3A
:1013300003C08FEF9FEF28C022FF16C04681578160
:10134000248135814217530744F4A081B1819D0166
:101350002F5F3F4F208331838C93268137812F5F0E
:101360003F4F2683378310C0EB01092F182F0084CD
:10137000F185E02D1995892BE1F68E819F810196EB
:101380008E839F83812F902FDF91CF911F910F919B
:101390000895FA01AA27283051F1203181F1E8940B
:1013A0006F936E7F6E5F7F4F8F4F9F4FAF4FB1E058
:1013B0003ED0B4E03CD0670F781F891F9A1FA11D53
:1013C000680F791F8A1F911DA11D6A0F711D811D54
:1013D000911DA11D20D009F468943F912AE0269F19
:1013E00011243019305D3193DEF6CF010895462F78
:1013F0004770405D4193B3E00FD0C9F7F6CF462F59
:101400004F70405D4A3318F0495D31FD40524193C1
:1014100002D0A9F7EACFB4E0A6959795879577957E
:101420006795BA95C9F700976105710508959B0105
:10143000AC010A2E06945795479537952795BA958E
:10144000C9F7620F731F841F951FA01D0895F8949C
:02145000FFCFCC
:1014520030313233343536373839414243444546E8
:10146200256C752025642025642025640A0031320C
:1014720033340050617373776F72643A0044656E5F
:101482006965640A0057656C636F6D650A00746F65
:041492007563680016
:00000001FF
